S00B00005744542E737265632A
S113000029C000002FC000002DC000002BC000003C
S113001029C0000027C0000025C0000023C0000044
S113002021C000001FC000001DC000001BC0000054
S113003019C0000017C0000015C0000013C0000064
S113004011C000000FC000000DC000000BC0000074
S113005009C0000011241FBECFE5D8E0DEBFCDBF2C
S11300600CD01CC0CDCF8FE081BD81B58E7F81BD0A
S1130070089588E181BD11BC0895A09AC1E0F3DF21
S113008085B38C2785BB2FEF88EF95E12150804005
S11300909040E1F700C00000ECDFF1CFF894FFCF0F
S9030000FC
