:1000000029C00000D6C00000FBC0000020C10000D5
:1000100031C000002FC000002DC000002BC0000028
:1000200029C0000027C0000070C0000098C0000078
:100030008CC10000B4C10000D9C10000FEC10000A5
:1000400019C0000017C0000015C0000054C1000016
:1000500011C0000011241FBECFE5D8E0DEBFCDBF28
:1000600020E0A0E6B0E001C01D92A237B207E1F7A0
:1000700010D236C2C5CFFF920F931F93CF93DF9359
:1000800000D0CDB7DEB78C01909361008093600003
:10009000FC01F0808281F82A8181882359F0F82AB6
:1000A00088E0898383E08A83BE016F5F7F4F86E3A8
:1000B00090E0F4D0F80193818481892B95819CBFD5
:1000C0009481913039F499B7916099BF9FB7906846
:1000D0009FBF06C099B79E7F99BF9FB79F779FBF6D
:1000E000F8019381913021F499B7926099BF03C0D0
:1000F00099B79D7F99BFF3BE89BF0F900F90DF9195
:10010000CF911F910F91FF9008951F920F920FB6FC
:100110000F9211242F933F934F935F936F937F938D
:100120008F939F93AF93BF93EF93FF93E091600002
:10013000F09161000084F185E02D0995FF91EF9128
:10014000BF91AF919F918F917F916F915F914F91EF
:100150003F912F910F900FBE0F901F9018951F92F7
:100160000F920FB60F9211242F933F934F935F93EB
:100170006F937F938F939F93AF93BF93EF93FF936F
:10018000E0916000F09161000680F781E02D099513
:10019000FF91EF91BF91AF919F918F917F916F915F
:1001A0005F914F913F912F910F900FBE0F901F9035
:1001B00018951F920F920FB60F9211242F933F9311
:1001C0004F935F936F937F938F939F93AF93BF935F
:1001D000EF93FF93E0916600F09167000995FF911E
:1001E000EF91BF91AF919F918F917F916F915F91AF
:1001F0004F913F912F910F900FBE0F901F90189528
:100200001F920F920FB60F9211242F933F934F938B
:100210005F936F937F938F939F93AF93BF93EF936E
:10022000FF93E0916800F09169000995FF91EF91CB
:10023000BF91AF919F918F917F916F915F914F91FE
:100240003F912F910F900FBE0F901F9018951F9206
:100250000F920FB60F9211242F933F934F935F93FA
:100260006F937F938F939F93AF93BF93EF93FF937E
:10027000E0916A00F0916B000995FF91EF91BF91B9
:10028000AF919F918F917F916F915F914F913F912E
:100290002F910F900FBE0F901F901895FC01DB015E
:1002A00011968C911197813059F48C9180959181A0
:1002B000892381838C9180959281892382830895FB
:1002C000823051F48C918095918189238183928130
:1002D0008C91892B8283089591818C91892B8183C4
:1002E0008C9180959281892382830895FC012281DB
:1002F0006227628308951F920F920FB60F92112406
:100300002F933F934F935F936F937F938F939F931D
:10031000AF93BF93EF93FF93E0916200F09163007E
:100320000480F581E02D0995FF91EF91BF91AF9188
:100330009F918F917F916F915F914F913F912F91FD
:100340000F900FBE0F901F9018951F920F920FB62F
:100350000F9211242F933F934F935F936F937F934B
:100360008F939F93AF93BF93EF93FF93E0916400BC
:10037000F09165000780F085E02D0995FF91EF91E0
:10038000BF91AF919F918F917F916F915F914F91AD
:100390003F912F910F900FBE0F901F9018951F92B5
:1003A0000F920FB60F9211242F933F934F935F93A9
:1003B0006F937F938F939F93AF93BF93EF93FF932D
:1003C000E0917000F09171000995FF91EF91BF915C
:1003D000AF919F918F917F916F915F914F913F91DD
:1003E0002F910F900FBE0F901F9018951F920F9294
:1003F0000FB60F9211242F933F934F935F936F93F8
:100400007F938F939F93AF93BF93EF93FF93E0916D
:100410006E00F0916F000995FF91EF91BF91AF9140
:100420009F918F917F916F915F914F913F912F910C
:100430000F900FBE0F901F9018951F920F920FB63E
:100440000F9211242F933F934F935F936F937F935A
:100450008F939F93AF93BF93EF93FF93E0916C00C3
:10046000F0916D000995FF91EF91BF91AF919F9130
:100470008F917F916F915F914F913F912F910F904D
:100480000FBE0F901F90189561E089E390E02ECF8A
:100490000895CF93DF93CDB7DEB72C970FB6F894BE
:1004A000DEBF0FBECDBF11E0198383E08A83BE019A
:1004B0006F5F7F4F89E390E0F1DE80E48B8385E01E
:1004C0008D838AEF88871C821E821F831C861B8671
:1004D00084E492E09A878987CE010396CCDDFFCF32
:0404E000F894FFCFBE
:00000001FF
